:100000000C9434000C9451000C9451000C94510049
:100010000C9451000C9451000C9451000C9451001C
:100020000C9451000C9451000C9451000C9451000C
:100030000C9451000C9451000C9451000C945100FC
:100040000C9451000C9451000C9453000C945100EA
:100050000C9487000C9451000C9451000C945100A6
:100060000C9451000C94510011241FBECFEFD8E026
:10007000DEBFCDBF11E0A0E0B1E0E4E1F8E002C0F6
:1000800005900D92AA32B107D9F711E0AAE2B1E0CA
:1000900001C01D92A637B107E1F70E940F010C9431
:1000A00008040C9400001F920F920FB60F921124B7
:1000B0002F933F938F939F93EF93FF9320916E0124
:1000C00080916D0130E090E001968F71907028175B
:1000D000390791F080916D01E82FF0E09091C60012
:1000E000E35BFE4F90838F5F80936D0180916D0184
:1000F000803210F010926D01FF91EF919F918F91DE
:100100003F912F910F900FBE0F901F9018951F9247
:100110000F920FB60F9211248F939F93EF93FF933B
:1001200014C08091C00085FFFCCFE0914B01F0E04E
:10013000E65DFE4F80818093C60080914B0190E088
:1001400001968F71907080934B0190914A0180913C
:100150004B01981731F7FF91EF919F918F910F907D
:100160000FBE0F901F90189590916D0180916E01B8
:100170009817D1F3E0916E01F0E0E35BFE4F8081D0
:1001800020916E0130E02F5F3F4F2F713070209330
:100190006E010895482F20914B0180914A0130E073
:1001A00090E001968F71907028173907A1F3909114
:1001B0004A0180914B01981739F48091C00085FF66
:1001C000FCCF4093C60010C080914A01E82FF0E0B8
:1001D000E65DFE4F40838F5F80934A0180914A0124
:1001E000803210F010924A0180E090E00895109261
:1001F0004A0110924B0110926D0110926E01109203
:10020000C50083E38093C400E1ECF0E088E18083E3
:1002100086E08093C2008081806880830895EF9299
:10022000FF920F931F93CF93DF930E94F7008CE10F
:1002300091E09093730180937201789480E0E82EAE
:1002400081E0F82EC8E1D1E00E94B400082F00D070
:10025000EDB7FEB7F282E1820E943F0100D0EDB718
:10026000FEB7D283C183112707FD10951483038342
:100270000E943F010F900F900F900F90E5CFA0E0EC
:10028000B0E0E5E4F1E00C94E103FE013596619104
:1002900071918091720190917301AF010E9454019C
:1002A0002096E2E00C94FD03ABE0B0E0EAE5F1E07B
:1002B0000C94D1033C012B015A01FC0117821682D8
:1002C000838181FD03C06FEF7FEFC6C19AE0892E65
:1002D0001E010894211C311CF3012381F20123FD2E
:1002E000859123FF81912F01882309F4B2C18532C2
:1002F00039F423FD859123FF81912F01853229F463
:1003000090E0B3010E944703E7CF982FFF24EE242B
:100310009924FFE1FF15D0F09B3269F09C3228F45C
:10032000903259F0933291F40EC09D3249F09033DF
:1003300069F441E024C052E0F52A84E0F82A28C09C
:1003400098E0F92A25C0E0E1FE2A22C0F7FC29C086
:10035000892F80538A3070F4F6FE05C0989C902C4B
:100360001124980E15C0E89CE02C1124E80EF0E250
:10037000FF2A0EC09E3229F4F6FC6BC140E4F42A39
:1003800007C09C3619F450E8F52A02C0983649F4A3
:10039000F20123FD959123FF91912F01992309F0FB
:1003A000B8CF892F8554833018F08052833038F4C9
:1003B00044E050E0A40EB51E5FE359830FC09336AE
:1003C00031F0933779F0933509F056C020C0F5012C
:1003D0008081898342E050E0A40EB51E610101E0F6
:1003E00010E012C0F501C080D180F6FC03C06FEFB1
:1003F0007FEF02C0692D70E042E050E0A40EB51E10
:10040000C6010E943C038C015FE7F52214C0F50190
:10041000C080D180F6FC03C06FEF7FEF02C0692D72
:1004200070E042E050E0A40EB51EC6010E94310308
:100430008C0150E8F52AF3FE07C01AC080E290E074
:10044000B3010E944703EA948E2D90E00817190724
:10045000A8F30EC0F601F7FC8591F7FE81916F01BC
:1004600090E0B3010E944703E110EA94015010406C
:100470000115110579F7EAC0943611F0993669F53E
:10048000F7FE08C0F501208131814281538184E06B
:1004900090E00AC0F501808191819C01442737FDDD
:1004A0004095542F82E090E0A80EB91E9FE6F922F5
:1004B00057FF09C050954095309521953F4F4F4FBC
:1004C0005F4FE0E8FE2ACA01B901A1012AE030E04D
:1004D0000E947303D82ED21840C0953729F41F2DDF
:1004E0001F7E2AE030E01DC01F2D197F9F3661F06E
:1004F000903720F4983509F0ACC00FC0903739F030
:10050000983709F0A6C004C028E030E00AC01061A6
:1005100014FD146020E130E004C014FD166020E1F9
:1005200032E017FF08C0F5016081718182819381FB
:1005300044E050E008C0F50180819181BC0180E079
:1005400090E042E050E0A40EB51EA1010E947303AA
:10055000D82ED2188FE7F82EF122F6FE0BC05EEFF0
:10056000F522D91438F4F4FE07C0F2FC05C08FEE72
:10057000F82202C01D2D01C0192DF4FE0DC0FE0190
:10058000ED0DF11D8081803319F499EEF92208C038
:100590001F5FF2FE05C003C08F2D867809F01F5F34
:1005A0000F2DF3FC14C0F0FE0FC01E1510F09D2C93
:1005B0000BC09D2C9E0C911A1E2D06C080E290E06F
:1005C000B3010E9447031F5F1E15C0F304C01E1530
:1005D00010F4E11A01C0EE2404FF0FC080E390E0A4
:1005E000B3010E94470302FF1DC001FD03C088E75D
:1005F00090E00EC088E590E00BC0802F867891F0E7
:1006000001FF02C08BE201C080E2F7FC8DE290E0C6
:10061000B3010E94470306C080E390E0B3010E944B
:1006200047039A94D914C0F3DA94F101ED0DF11D4A
:10063000808190E0B3010E944703DD20A9F706C046
:1006400080E290E0B3010E944703EA94EE20C1F7F4
:1006500043CEF30166817781CB012B96E2E10C94C6
:10066000ED03FC010590615070400110D8F78095B2
:1006700090958E0F9F1F0895FC016150704001906E
:100680000110D8F7809590958E0F9F1F08950F93B6
:100690001F93CF93DF938C01EB018B8181FF1BC0F4
:1006A00082FF0DC02E813F818C819D8128173907E3
:1006B00064F4E881F9810193F983E88306C0E88551
:1006C000F985802F0995892B31F48E819F810196C0
:1006D0009F838E8302C00FEF1FEFC801DF91CF9180
:1006E0001F910F910895FA01AA27283051F1203166
:1006F00081F1E8946F936E7F6E5F7F4F8F4F9F4FB6
:10070000AF4FB1E03ED0B4E03CD0670F781F891FF7
:100710009A1FA11D680F791F8A1F911DA11D6A0FC5
:10072000711D811D911DA11D20D009F468943F9178
:100730002AE0269F11243019305D3193DEF6CF0177
:100740000895462F4770405D4193B3E00FD0C9F73D
:10075000F6CF462F4F70405D4A3318F0495D31FDAA
:100760004052419302D0A9F7EACFB4E0A6959795FD
:10077000879577956795BA95C9F7009761057105D3
:1007800008959B01AC010A2E06945795479537951D
:100790002795BA95C9F7620F731F841F951FA01D77
:1007A00008952F923F924F925F926F927F928F9215
:1007B0009F92AF92BF92CF92DF92EF92FF920F93F0
:1007C0001F93CF93DF93CDB7DEB7CA1BDB0B0FB6FA
:1007D000F894DEBF0FBECDBF09942A8839884888B7
:1007E0005F846E847D848C849B84AA84B984C8844D
:1007F000DF80EE80FD800C811B81AA81B981CE0F44
:10080000D11D0FB6F894DEBF0FBECDBFED01089528
:04081000F894FFCF8A
:1008140050726F63657373696E6720636861726198
:1008240063746572203A200025630A000000000208
:0A08340000000000CA0000000000F0
:00000001FF
